:020000040800F2
:100000009815002029020008E11800089F0F000839
:10001000DD180008070400085D2A00080000000041
:100020000000000000000000000000002F27000872
:100030000B04000800000000B90200082529000890
:10004000430200084302000843020008430200087C
:10005000430200084302000843020008430200086C
:10006000430200084302000843020008430200085C
:10007000430200084302000843020008430200084C
:10008000430200084302000843020008430200083C
:10009000430200084302000843020008430200082C
:1000A000430200084302000843020008430200081C
:1000B000430200084302000843020008430200080C
:1000C00043020008430200084302000843020008FC
:1000D00043020008430200084302000843020008EC
:1000E00043020008430200084302000843020008DC
:1000F00043020008430200084302000843020008CC
:1001000043020008430200084302000843020008BB
:1001100043020008430200084302000843020008AB
:10012000430200084302000843020008430200089B
:10013000430200084302000843020008430200088B
:10014000430200084302000843020008430200087B
:10015000430200084302000843020008430200086B
:10016000430200084302000843020008430200085B
:100170004302000843020008430200080000000098
:10018000430200084302000800F002F800F03CF8C7
:100190000AA090E8000C82448344AAF10107DA45E2
:1001A00001D100F031F8AFF2090EBAE80F0013F0F8
:1001B000010F18BFFB1A43F001031847542A00002F
:1001C000742A0000103A24BF78C878C1FAD85207C0
:1001D00024BF30C830C144BF04680C6070470000C1
:1001E0000023002400250026103A28BF78C1FBD840
:1001F000520728BF30C148BF0B6070471FB502F0DF
:1002000079FC1FBD10B510BD00F0BCF81146FFF71A
:10021000F5FF02F027FC00F0DAF803B4FFF7F2FF75
:1002200003BC00F0E1F80000094880470948004796
:10023000FEE7FEE7FEE7FEE7FEE7FEE7FEE7FEE796
:10024000FEE7FEE704480549054A064B70470000F3
:10025000F929000889010008980F0020981500204E
:100260009811002098110020EFF3108072B67047AB
:1002700080F310887047264C4FF6FF7525604FF0CD
:10028000000484F30988234C4FF001052570224CAB
:100290004FF08055256062B6FEE730B41E4C4FF03B
:1002A0008055256030BC704730B41B4C4FF08055F2
:1002B000256030BC704700BF72B6EFF3098050B1C3
:1002C0001EF0100F08BF20ED108A203880E8F00FD4
:1002D00012490968086000B5114880475DF804EBD1
:1002E000104811490A7802700C4810490A680260E7
:1002F000106890E8F00F20301EF0100F08BFB0EC2F
:10030000108A80F309884EF0040E62B6704700BF71
:1003100022ED00E04200002004ED00E04800002053
:10032000B91F0008370000203800002050000020CE
:100330004FF0000200B5134694469646203922BF7E
:10034000A0E80C50A0E80C50B1F12001BFF4F7AFC9
:10035000090728BFA0E80C5048BF0CC05DF804EBAB
:10036000890028BF40F8042B08BF704748BF20F819
:10037000022B11F0804F18BF00F8012B7047704717
:1003800070477047754600F02BF8AE460500694689
:10039000534620F00700854618B020B5FFF752FFFE
:1003A000BDE820404FF000064FF000074FF0000876
:1003B0004FF0000B21F00701AC46ACE8C009ACE8F7
:1003C000C009ACE8C009ACE8C0098D46704710B55B
:1003D0000446AFF300802046BDE81040FFF71DBF84
:1003E00000487047340F002001491820ABBEFEE7DB
:1003F00026000200704705E0012001F04FFA64205A
:1004000001F0DCFDF8E700BFFEE7704700BFFEE744
:1004100070B504461D460023B5F5804F13D154F83E
:1004200022300C480340D1E9000640EA06108E68ED
:1004300040EA06208E8940EA06408E693043034335
:1004400044F8223003E06FF0704044F822000020AE
:1004500070BD00000000F0CF10B503460022086810
:1004600053F8202012480240D1E901042043CC680F
:1004700020430C6920434C6920438C692043CC699C
:1004800020430C6A20434C6A20438C6A2043CC6A88
:100490002043CC6B20430C6B204302438868082820
:1004A00001D142F04002086843F82020002010BD2E
:1004B0008000F0FF30B503460024501C53F8204064
:1004C00004F04044D1E9000540EA05108D6840EA97
:1004D00005208D8940EA0545088A401E45EA0055F9
:1004E000087D801E45EA00608D6928430443501C46
:1004F00043F82040002030BDF8B502460B460025E9
:10050000002400200021DCE0012606FA01F51E6827
:1005100006EA0504AC4273D15E68022E02D05E6822
:10052000122E13D1CF0802F1200656F827004E07ED
:10053000F70E0F26BE40B0434F07FF0E1E69BE40A8
:100540003043CF0802F1200646F8270010684F001C
:100550000326BE40B0431E7906F003064F00BE409E
:10056000304310605E68012E08D05E68022E05D010
:100570005E68112E02D05E68122E13D190684F0073
:100580000326BE40B0434F00DE68BE40304390605B
:10059000506801268E40B0431E79C6F300168E4087
:1005A00030435060D0684F000326BE40B0434F0038
:1005B0009E68BE403043D0605E6806F08056B6F15B
:1005C000805F7DD100BF00260096404E366846F41D
:1005D00080463E4F3E603E46366806F480460096B2
:1005E00000BF00BF3A4E8F0856F827008E07370F1E
:1005F0000F26BE40B043374EB24202D1002624E05F
:100600005EE0354EB24201D101261EE0334EB242C9
:1006100001D1022619E0324EB24201D1032614E084
:10062000304EB24201D104260FE02F4EB24201D12A
:1006300005260AE02D4EB24201D1062605E02C4ED9
:10064000B24201D1072600E008268F073F0FBE40C7
:1006500030431F4E8F0846F82700264E3068A043CF
:100660005E6806F48036B6F5803F00D12043214E07
:100670003060361D3068A0435E6806F40036B6F57B
:10068000003F00D120431B4E361D3060361D3068C0
:10069000A0435E6806F48016B6F5801F00D12043A3
:1006A000144E08363060361D3068A0435E6806F48C
:1006B0000016B6F5001F00D120430E4E0C363060F8
:1006C000491C1029FFF420AFF8BD00004438024057
:1006D00008380140000002400004024000080240C7
:1006E000000C0240001002400014024000180240BA
:1006F000001C0240003C014042694A404261704790
:100700000AB1816101E00B04836170470148006810
:10071000000C7047002004E00148006870470000AA
:100720000000002002480068401C01490860704732
:100730000000002010B50D48006840F400700B491F
:1007400008600846006840F4806008600846006859
:1007500040F480700860032000F05EF80F2000F085
:1007600007F800F019F8002010BD0000003C02401E
:1007700070B50446074800684FF47A71B0FBF1F594
:10078000284600F0F2FB00222146501E00F005F83A
:10079000002070BD1800002070472DE9F05F8046F2
:1007A0000D461646002701F09DF8074639462A46B1
:1007B000334601F00700C0F1070ABAF1040F02D96D
:1007C0004FF0040A01E0C0F1070AD14600F1040A23
:1007D000BAF1070F02D24FF0000A01E0A0F1030ABC
:1007E000D4464FF0010A0AFA09FAAAF1010A0AEA04
:1007F000020A0AFA0CFA4FF0010B0BFA0CFBABF1F0
:10080000010B0BEA030B4AEA0B042146404601F0B8
:1008100071F8BDE8F09F000000BF00F00702064B32
:1008200019684FF6FF031940044B0B4343EA0221BA
:10083000014B196000BF70470CED00E00000FA05A5
:1008400070B504460D4600266D48006800F00F00A4
:10085000A84209D26A490D700846006800F00F00EE
:10086000A84201D0012070BD207800F002000228CB
:1008700007D16448006820F0F000A168084361498E
:100880000860207800F00100002877D06068012817
:1008900007D15C4808380068C0F34040B8B901206F
:1008A000E1E76068022802D06068032807D1554854
:1008B00008380068C0F3406048B90120D3E75148C8
:1008C00008380068C0F3400008B90120CBE74D4864
:1008D000006820F00300616808434A490860FFF798
:1008E0001BFF06466068012810D108E0FFF714FFDF
:1008F000801B41F28831884201D90320B3E7414887
:10090000006800F00C000428F0D137E0606802288D
:1009100010D108E0FFF700FF801B41F288318842C8
:1009200001D903209FE73748006800F00C00082831
:10093000F0D123E06068032810D108E0FFF7ECFE57
:10094000801B41F28831884201D903208BE72D4872
:10095000006800F00C000C28F0D10FE008E0FFF771
:10096000DBFE801B41F28831884201D903207AE7FF
:100970002448006800F00C000028F0D120480068EE
:1009800000F00F00A84209D91D490D700846006803
:1009900000F00F00A84201D0012064E7207800F0A9
:1009A0000400042807D11748006820F4E050E168EB
:1009B000084314490860207800F00800082808D18E
:1009C0001048006820F46040216940EAC1000D49E8
:1009D000086000F01DF80B49096801F0F001F022F1
:1009E00092FAA2F2B2FA82F2D140074A515CC840B0
:1009F000064908600F20FFF7BBFE002033E7000028
:100A0000003C024008380240FE2A0008180000207E
:100A100070B50021002200230020274C246804F038
:100A20000C0424B1042C04D0082C41D103E0234849
:100A300040E023483EE0204C241F246804F03F019E
:100A40001D4C241F246804F4800484B11C4CB4FBA6
:100A5000F1F5194C241F246847F6C076344096FA05
:100A6000A6F6B6FA86F6F44005FB04F20FE0134C46
:100A7000B4FBF1F5104C241F246847F6C0763440CF
:100A800096FAA6F6B6FA86F6F44005FB04F20A4C8E
:100A9000241F246804F440344FF4403595FAA5F53A
:100AA000B5FA85F5EC40641C6300B2FBF3F001E09D
:100AB000024800BF00BF70BD083802400024F400A7
:100AC00000127A0038B504460025207800F00100B5
:100AD000002874D0F748006800F00C0004280DD0FE
:100AE000F448006800F00C00082813D1F148001FFA
:100AF000006800F48000B0F5800F0BD1ED48083895
:100B00000068C0F34040002859D06068002856D1E2
:100B1000012038BD00BF6068B0F5803F08D1E548CE
:100B20000838006840F48030E249083908601EE067
:100B30006068B0F5A02F0DD1DE480838006840F499
:100B40008020DC49083908600846006840F480309D
:100B500008600CE0D7480838006820F48030D54998
:100B6000083908600846006820F48020086000BF4B
:100B7000606890B1FFF7D0FD054606E0FFF7CCFDB9
:100B8000401B642801D90320C3E7CA48083800681D
:100B9000C0F340400028F1D011E0FFF7BDFD05464D
:100BA00006E0FFF7B9FD401B642801D90320B0E738
:100BB000C04808380068C0F340400028F1D12078D0
:100BC00000F00200022869D1BA48006800F00C0069
:100BD00058B1B848006800F00C00082821D1B54889
:100BE000001F006800F48000D8B9B24808380068D7
:100BF000C0F3400020B1E068012801D0012088E75F
:100C0000AC480838006820F0F800F82292FAA2F206
:100C1000B2FA82F2216991400843A6490839086076
:100C20003CE0E06828B30120A3490860FFF774FDA9
:100C3000054606E0FFF770FD401B022801D903209E
:100C400067E79C4808380068C0F340000028F1D0EE
:100C500098480838006820F0F800F82292FAA2F2CA
:100C6000B2FA82F22169914008439249083908603A
:100C700014E0002090490860FFF74EFD054606E0AD
:100C8000FFF74AFD401B022801D9032041E78948AC
:100C900008380068C0F340000028F1D1207800F047
:100CA000080008282CD16069A8B101208349086098
:100CB000FFF732FD054606E0FFF72EFD401B022838
:100CC00001D9032025E77B486C300068C0F3400061
:100CD0000028F1D014E0002078490860FFF71CFDDF
:100CE000054606E0FFF718FD401B022801D9032046
:100CF0000FE770486C300068C0F340000028F1D165
:100D0000207800F0040004287FD100BF002000906C
:100D100068483830006840F08050664938310860D3
:100D20000846006800F08050009000BF00BF644893
:100D3000006840F4807062490860FFF7EDFC0546EA
:100D400006E0FFF7E9FC401B022801D90320E0E69A
:100D50005B48006800F480700028F2D000BFA068F3
:100D6000012808D153486830006840F0010051491B
:100D7000683108601DE0A06805280DD14D48683035
:100D8000006840F004004B4968310860084600687C
:100D900040F0010008600CE046486830006820F030
:100DA00001004449683108600846006820F00400EA
:100DB000086000BFA068A0B1FFF7AEFC054608E0E0
:100DC000FFF7AAFC401B41F28831884201D9032079
:100DD0009FE6384868300068C0F340000028EFD034
:100DE00013E0FFF799FC054608E0FFF795FC401B70
:100DF00041F28831884201D903208AE62D486830C3
:100E00000068C0F340000028EFD1A069F0B3294882
:100E1000006800F00C00082871D0A069022858D1A1
:100E2000002025490866FFF777FC054606E0FFF736
:100E300073FC401B022801D903206AE61D480838CC
:100E40000068C0F340600028F1D1D4E907010843ED
:100E500047F6C07292FAA2F2B2FA82F2616A914047
:100E600008430122A16AC2EB51014FF4403292FAC9
:100E7000A2F2B2FA82F2914008434FF0706292FA05
:100E8000A2F2B2FA82F2E16A914000E039E008434E
:100E90000849091F0860012007490866FFF73CFC64
:100EA00005460FE0FFF738FC401B02280AD9032053
:100EB0002FE600000838024000004742800E4742FB
:100EC0000070004010480068C0F340600028E9D07E
:100ED00017E000200D490866FFF71EFC054606E0F6
:100EE000FFF71AFC401B022801D9032011E606482F
:100EF0000068C0F340600028F2D102E0FFE7012063
:100F000007E6002005E600000038024000004742E6
:100F100070B504460E4615460CB9012070BD94F814
:100F2000490028B9002084F84800204600F01CF849
:100F300004F108012068FFF78FFA3146A2682068A3
:100F4000FFF7B8FA2946236BD4E90102FFF760FAEC
:100F5000A168206850F8210040F00100A2682168D3
:100F600041F822000020D9E7704770B504462546B5
:100F7000681EB0F1807F01D301200FE0681E4FF0A2
:100F8000E02148610F214FF0FF3000F0B3FC00205A
:100F90004FF0E021886107200861002070BD00BF8C
:100FA000FEE70000D321074A1180911C08880888B9
:100FB00008884FF6FF7101EA0020911C0988084358
:100FC00070470000FE1F006C70B504460025002627
:100FD000094800880949098800FB01F600210846F4
:100FE00000F046FB00F0B0FB00BF02E004480480C4
:100FF0006D1CB542FAD370BD0C0000200E0000201D
:101000000020006C70B505460E4614463146284651
:1010100000F00CF80348008803490880881C04800D
:1010200070BD000010000020FE1F006C30B50446AB
:101030000D462946204600F01BFB00F085FB0248C8
:1010400000880249088030BD040000200020006CA8
:1010500000B58DB01C2101A8FFF76AF900BF002080
:1010600000905A48006840F0080058490860084657
:10107000006800F00800009000BF00BF00BF002023
:1010800000900846006840F01000086008460068BC
:1010900000F01000009000BF00BF00BF00200090D3
:1010A0000846006840F0200008600846006800F02C
:1010B0002000009000BF00BF00BF00200090084645
:1010C000006840F0400008600846006800F04000FA
:1010D000009000BF00BF00BF002000903B480830D8
:1010E000006840F00100394908310860084600688E
:1010F00000F00100009000BF00BF0815089001201B
:10110000099003200B9008A93148FFF7F5F94CF23C
:10111000337008900220099003200B900C200C9053
:1011200008A92C48FFF7E8F94FF6807008900220D4
:1011300009900B900C200C9008A92748FFF7DCF9C8
:10114000042008900220099003200B900C200C90A2
:1011500008A92248FFF7D0F94FF4805008900220E8
:10116000099003200B900C200C9008A91B48FFF756
:10117000C3F90F200190002002903C200390002032
:1011800004900590069007904FF0204014490860A5
:10119000144848600620886000211148C160016140
:1011A0001021416100218161C161016241624FF4FE
:1011B000805181620021C16201634163816301AAA0
:1011C00001A9FFF7A5FE0DB000BD000030380240B8
:1011D00000140240000C02400010024000180240BF
:1011E00064040020040100A010B5FFF731FFFFF7F1
:1011F000D9FEEB4908800846008849F2413188420F
:1012000023D0A120E7490880881C0088E449088091
:10121000E448801C00880880084600884FF6FF716B
:1012200001EA0020DE490880DE48801C0088098829
:101230000843DB4908800846008845F2617188420E
:1012400003D141F66310D6490880D548008849F299
:10125000413188421CD1D448006820F00F004FF083
:101260002041C1F81C010846D0F81C0120F4706030
:10127000C1F81C010846D0F81C0140F00300C1F879
:101280001C010846D0F81C0140F40070C1F81C0194
:10129000C348008849F2413188427DD1CF20C149FD
:1012A00008800020891C0880C12008803020088028
:1012B000ED20891E08806420891C08800320088096
:1012C0001220088081200880E820891E088085205F
:1012D000891C0880102008807A200880CB20891E75
:1012E00008803920891C08802C2008800020088074
:1012F0003420088002200880F720891E08802020E2
:10130000891C0880EA20891E08800020891C08802A
:101310000880C020891E08801B20891C0880C120ED
:10132000891E08800120891C0880C520891E08802C
:101330003020891C08800880C720891E0880B720BB
:10134000891C08803620891E08804820891C088056
:101350003A20891E08805520891C0880B120891EEA
:1013600008800020891C08801A200880B620891E69
:1013700008800A20891C0880A2200880F220891E8B
:1013800008800020891C08802620891E08800120F2
:10139000891C0880E02000E060E0891E08800F20A2
:1013A000891C08802A2008802820088008200880BE
:1013B0000E2008800820088054200880A92008807A
:1013C000432008800A2008800F2008800020088021
:1013D000088008800880E120891E08800020891C80
:1013E0000880152008801720088007200880112019
:1013F0000880062008802B200880562008803C208A
:10140000088005200880102008800F2008803F20D9
:10141000088008800F2008802B20891E088000206B
:10142000891C08800880012008803F2008802A202D
:10143000891E08800020891C088008800880EF2011
:1014400008801120891E0880782001F009FB2920DE
:101450005449088001205549086098E050480088A8
:1014600041F663118842F8D1E2204E4908801D20E0
:10147000891C08800220088004200880642001F074
:10148000F0FAE020474908800120891C08800A20E2
:1014900001F0E6FAE020434908800320891C088017
:1014A0000C2001F0DDFA01203E4908800A2001F0FD
:1014B000D7FAE6203B4908802F20891C0880FF20AE
:1014C00008800880B020891E08802020891C0880A0
:1014D000002008800320088040F21F30088001208F
:1014E000088040F2DF10088000200880B420891EA8
:1014F00008800420891C088040F21F4008800020DA
:1015000008802E200880002008800880088008803D
:10151000B620891E08800220891C08804FF40370C1
:1015200008800020088017200880152008800020EF
:1015300008800880F020891E08800320891C08800C
:101540002920891E0880D02008800020891C08805E
:10155000BE20891E08800520891C0880FE20088086
:10156000012008800020088008800880B820891E9B
:1015700008800320891C088001200880BA20891E69
:1015800008800120891C0880FF2001F0B9F90020A3
:1015900001F0CEF84FF6FF70FFF716FD10BD00000A
:1015A00008000020FE1F006C1C0100A0A88242421F
:1015B00030B58418641EA2B2CC18641EA3B2264CA7
:1015C00024786CBB254C248841F66315AC4227D1A6
:1015D000234C2488A41A241AA0B2CC18641EA3B2E7
:1015E000204C2488204D2C800412AD1C2C80C4B2C9
:1015F0002C808418641EC4F30F242C808418641E6D
:10160000E4B22C80194C2488AD1E2C800C12AD1C29
:101610002C80CCB22C801C122C80DCB22C8019E0E7
:10162000104C2488104D2C800412AD1C2C80C4B2A8
:101630002C8014122C80D4B22C800C4C2488AD1E2B
:101640002C800C12AD1C2C80CCB22C801C122C8057
:10165000DCB22C8030BD00000A0000200800002011
:101660000C00002012000020FE1F006C140000205F
:101670002E4A128849F241339A4212D12C4A1288DA
:101680002C4B1A8002129B1C1A80C2B21A802A4A62
:1016900012889B1E1A800A129B1C1A80CAB21A80DA
:1016A00042E0224A128841F663139A423CD1234A0F
:1016B00012788AB9224A1288521E121A90B21C4A13
:1016C00012881C4B1A8000229B1C1A801A8002125E
:1016D0001A80C2B21A8013E0154A1288154B1A807C
:1016E00002129B1C1A80C2B21A80154A1288521E1E
:1016F000C2F30F221A80124A1278521ED2B21A80F6
:101700000D4A12880B4B1A800A129B1C1A80CAB20F
:101710001A800C4A1288521EC2F30F221A80094AFC
:101720001278521ED2B21A807047000008000020C2
:1017300012000020FE1F006C140000200A00002090
:101740000C0000200E00002002480088024908809A
:101750007047000010000020FE1F006C024A10803D
:10176000921C118070470000FE1F006C00B587B00E
:1017700000BF002001902648006840F01000244976
:1017800008600846006800F01000019000BF00BF2C
:1017900000BF002001900846006840F0400008604B
:1017A0000846006800F04000019000BF00BF012023
:1017B0000390002004900820029002A91548FEF72B
:1017C0009BFE01200390002004901020029002A9AB
:1017D0001048FEF791FE01200390002004904FF482
:1017E0000070029002A90C48FEF786FE0122082133
:1017F0000848FEF785FF012210210648FEF780FF0A
:10180000012251020448FEF77BFF07B000BD000033
:1018100030380240001002400018024070B5044603
:101820000D46DDB1012C04D0022C08D0032C13D1BD
:101830000BE0002208211748FEF762FF0DE00022AE
:1018400010211448FEF75CFF07E000224FF40071FE
:101850001148FEF755FF00E000BF1AE0012C04D04C
:10186000022C08D0032C12D10BE0012208210948D8
:10187000FEF746FF0CE0012210210648FEF740FF6C
:1018800006E0012251020448FEF73AFF00E000BFE3
:1018900000BF70BD001002400018024010B50446A1
:1018A000012C04D0022C07D0032C10D109E0082110
:1018B0000848FEF721FF0BE010210648FEF71CFF49
:1018C00006E04FF400710448FEF716FF00E000BF89
:1018D00000BF10BD001002400018024000BFFEE72C
:1018E0007047000002480068C0F302207047000003
:1018F0000CED00E010B5002807DA0A07140E054ABF
:1019000000F00F031B1FD45403E00A07130E024A12
:10191000135410BD18ED00E000E400E010B500F035
:1019200013F800F07DFC00F0A5FC00F0C5FC00F011
:101930004DFC00F00DFC00F059FD00F0FDFC00F046
:1019400023FD00F002F810BD70477047064800788C
:10195000012808D105480078FF2804D20348007800
:10196000401C0249087070474200002035000020EA
:1019700010B500241A480078012830D1FEF774FC15
:1019800004461848007820B116480078401E1549D2
:10199000087014480078F8B913480078E0B900F0EE
:1019A00087FD12481249097850F821001149086052
:1019B0000F4800781049097888420DD00D4800681A
:1019C000806B401C0B49096888630C480068401C08
:1019D0000A490860FEF768FC2046FEF749FC10BD86
:1019E000420000203500002036000020CC090020F5
:1019F0003800002050000020370000201C0000208C
:101A000010B50B48007890B900F052FD09480078F5
:101A10000949087009480749097850F82100084920
:101A200008600846006807490860FEF724FC10BDFE
:101A3000420000203800002037000020CC090020A0
:101A40005000002048000020704700002DE9F04FB2
:101A500085B081468A4693461C46DDE90F78129D83
:101A600000200390FEF700FC03902348007830B17B
:101A70000398FEF7FDFB3C2005B0BDE8F08F1F4842
:101A800050F8240088BB01201C4941F82400039829
:101A9000FEF7EEFB2A464146384600F03BFE2B4659
:101AA0005A465146484600F05BF904901198CDE93A
:101AB000008002953A4620460E9B049900F00EFDE8
:101AC000064636B90E48007801280CD100F0B6FC65
:101AD00009E0FEF7C9FB03900020084941F8240003
:101AE0000398FEF7C5FB3046C6E7FFE70398FEF70D
:101AF000BFFB2820C0E7000035000020CC090020F3
:101B000042000020704700002DE9F0410546002703
:101B10004748007810B14020BDE8F0813F2D01D149
:101B20003E20F9E7FEF7A0FB0746FF2D03D1414811
:101B3000006890F83250404850F8254024B93846A3
:101B4000FEF796FB4320E7E7012C04D13846FEF769
:101B50008FFB3D20E0E714F8340F3849085C6178CA
:101B600088432178354A505414F834091146085CEA
:101B700030B994F8361032480078884330490870FC
:101B8000E06918B12046E16900F0CCFA666A16B146
:101B9000304600F009FB0020E06284F8300084F851
:101BA000310028480078FF2804D226480078401CDD
:101BB000244908703846FEF75BFB00F0B2FAFEF7E6
:101BC00053FB07461F48007820B11E480078401E8E
:101BD0001C490870204600F041F81B480078401E60
:101BE000194908700020144941F82500A06930B94E
:101BF00000206169886115496069086005E0D4E9E1
:101C000005014861D4E905108861114800686061E8
:101C10000F4804600FA0E0643846FEF729FB0E4829
:101C20000078012801D100F009FC002074E70000D1
:101C30003500002048000020CC0900203A00002098
:101C4000390000203600002043000020540000200E
:101C50004C0000203F000000420000207047704709
:101C60002DE9F04106460F4614464FF0000815488E
:101C7000007818B112202070BDE8F081FEF7F4FA68
:101C80008046FF2E03D11048006890F832600F485C
:101C900050F826502DB94046FEF7EAFA432020704E
:101CA000EAE7012D05D14046FEF7E2FA4320207015
:101CB000E2E7EF644046FEF7DBFA0020207000BF49
:101CC000DAE700003500002048000020CC090020A1
:101CD000704770472DE9F04707460D464FF0000A60
:101CE000002028606860FEF7BFFA8246FF2F03D10C
:101CF0001948006890F83270184850F827402CB9FD
:101D00005046FEF7B5FA4320BDE8F087012C04D118
:101D10005046FEF7ADFA4320F6E7207C00F00100C4
:101D200020B95046FEF7A4FA4520EDE70026D4F886
:101D30000C90D4F808805046FEF79AFA00E0761C22
:101D400058F8041B0029FAD0B0002860A9EB06005F
:101D5000800068600020D7E748000020CC09002000
:101D600070B5044610460026051F28462E604FF425
:101D70008056051F28462E601526051F28462E6012
:101D80001426051F28462E601326051F28462E60A0
:101D90001226051F28462E601126051F28462E6094
:101DA0001026051F28462E600926051F28462E608E
:101DB0000826051F28462E600726051F28462E6088
:101DC0000626051F28462E600526051F28462E607C
:101DD0000426051F28462E600326051F28462E6070
:101DE0000226051F28462E600126051F28462E6064
:101DF0000026051F28462E604FF080750560051FE0
:101E000028462C60414E051F28462E604FF01236A2
:101E1000051F28462E604FF00336051F28462E600A
:101E20004FF00236051F28462E607610051F284603
:101E30002E60051F284629603126051F28462E6082
:101E40003026051F28462E602926051F28462E60AD
:101E50002826051F28462E602726051F28462E60A7
:101E60002626051F28462E602526051F28462E609B
:101E70002426051F28462E602326051F28462E608F
:101E80002226051F28462E602126051F28462E6083
:101E90002026051F28462E601926051F28462E607D
:101EA0001826051F28462E601726051F28462E6077
:101EB0001626051F28462E604FF01136051F2846AE
:101EC0002E604FF01036051F28462E604FF0093661
:101ED000051F28462E604FF00836051F28462E6045
:101EE0004FF00736051F28462E604FF00636051FB7
:101EF00028462E604FF00536051F28462E604FF00D
:101F00000436051F28462E6070BD000039260008E3
:101F10002DE9F04105464FF00008FEF7A5F980468F
:101F2000FF2D05D12048006890F83250012608E0C6
:101F30001D48006890F83200A84201D1012600E057
:101F400000261A4850F825402CB94046FEF790F973
:101F50004820BDE8F081012C04D14046FEF788F905
:101F60004320F6E794F834701148C05D94F83510BA
:101F700088430F49C8550846C05D30B994F83610FB
:101F80000C48007888430B49087094F8300040F002
:101F9000080084F830004046FEF76AF9012E01D1AE
:101FA00000F04CFA0020D4E748000020CC090020C3
:101FB0003A000020390000207047000070B5054647
:101FC00000261748007800B170BD1648007800B1AF
:101FD000FAE71DB3FEF748F906461348006890F883
:101FE00034401248005D1049096891F83510884363
:101FF0000E4908550846005D40B90B48006890F846
:1020000036100B4800788843094908700648006874
:10201000C5623046FEF72CF900F010FA00BFD3E796
:102020003500002036000020480000203A00002043
:102030003900002070B5002600F072F8FEF714F9A0
:10204000064631480068401C2F4908603046FEF7BC
:102050000FF92E480078012853D12D48007820B17F
:10206000012804D0022809D103E001250BE0002556
:1020700009E0012501202649087004E0012500201F
:102080002349087000BF00BF05B970BD214804682E
:1020900033E0FEF7E9F80646E06A50B3E06A401E16
:1020A000E062E06A28BB94F8300000F0370040B1ED
:1020B00014F8300F00F0C800207001206070303C30
:1020C00002E0002084F8310094F8300000F00800AD
:1020D00078B93434A0781049097808430E4908705B
:1020E00020780E49085C6178084314F834190B4ACB
:1020F000505464693046FEF7BBF894F832003F282C
:10210000C7D100BFC1E700006000002042000020EE
:102110005800002054000020390000203A00002020
:102120007047704710B590F8342001F10B039B5CA9
:1021300090F83540A34301F10B04A35423469B5C64
:1021400023B98B7A90F83640A3438B7210BD000000
:102150002DE9F0415021114800F03EF900250DE035
:10216000681C86B20D4800EB051400EB0617002032
:10217000207067600AA0E060681C85B2042DEFD370
:10218000064800EB051400202070606004A0E060A9
:10219000024804490860BDE8F08100007C05002089
:1021A0003F0000002400002030B501464A6808685E
:1021B0002AB9CC68606028B10025456002E0106053
:1021C00000B142608B6800255D6230BD70B5C821EA
:1021D000114800F001F900230FE0581C85B203EB11
:1021E00083000D4901EB800405EB850001EB8006BF
:1021F000002020706660581C83B2092BEDD303EBDE
:102200008300054901EB80040020207060600846CF
:102210000249086070BD0000B404002020000020C6
:1022200000200A4908600A4908700A4908700A49EA
:1022300008700A4908700A4908600A4908600A4992
:1022400008600A4908600A49087070476000002069
:10225000350000203600002043000020420000200E
:102260001C00002044000020300000202C00002032
:102270003400002000210A4A1170002004E00021EF
:10228000084A1154411CC8B20828F8D30021064A54
:102290001170064A1170064A1160064A11607047B3
:1022A000390000203A0000203700002038000020CC
:1022B000500000204800002070B54FF47C71194890
:1022C00000F08AF84FF48071174800F085F8002478
:1022D00013E0601CC5B2C4EBC40000EB4000114920
:1022E00001EB8003C5EBC50000EB400001EB80066D
:1022F0005E610EA0D864601CC4B20B2CE9D3C4EBA1
:10230000C40000EB4000074901EB80030020586146
:1023100006A0D86400200649086002480549086004
:1023200070BD0000CC0A0020CC0900203F00000056
:10233000540000204C00002000B587B0032000218D
:1023400080220A4BCDE90132CDE903104FF6FF7030
:102350003F23074A00900748FFF778FB06AA06A12B
:102360003F20FFF77DFC07B000BD0000CC07002038
:10237000C80900201126000875432F4F532D4949E5
:102380002049646C6500000000B587B0032000217F
:1023900080220A4BCDE90132CDE903104FF6FE70E1
:1023A0003E23074A00900748FFF750FB06AA06A104
:1023B0003E20FFF755FC07B000BD0000CC05002013
:1023C000C80700205126000875432F4F532D494957
:1023D000205374617400000004E0002200F8012B17
:1023E0004A1E91B20029F8D1704700002DE9F04152
:1023F00078211048FFF7F0FF00240DE0601C86B242
:1024000004EB44000B4901EBC00506EB460001EB71
:10241000C0072F60601C84B2042CEFD304EB44008F
:10242000044901EBC0050020286008460249086005
:10243000BDE8F081BC0E00205C00002010B5002437
:10244000FDF712FF044613480078F8B912480078E7
:10245000E0B900F02DF811481149097850F8210031
:10246000104908600E4800780F49097888420DD05D
:102470000C480068806B401C0A49096888630B4857
:102480000068401C09490860FDF707FF2046FDF77A
:10249000EFFE10BD3500002036000020CC090020E2
:1024A0003800002050000020370000201C000020D1
:1024B0000649074A1278885C0649095C034A515C60
:1024C00001EBC001044A1170704700000E2B000898
:1024D000390000203A000020380000202DE9F84F94
:1024E00005460F4690469946DDE90AAB002000906C
:1024F000FDF7BAFE00903F480468002C74D01834F1
:1025000054F8040C3B4908600098FDF7B1FE44F80C
:10251000187CA576002020766076606144F814BCB3
:1025200044F80CAC44F8108C0C9824F8080C24F8EF
:10253000069C0020E077E810207705F00700E076A1
:10254000217F01208840A077E17E012088406077CC
:1025500000206060E060A0602062A0626062E062D3
:10256000206325A06063183C002606E0002104F1EA
:10257000500040F82610701CC6B2002EF6D020463F
:10258000FFF762FA2046FFF7BDFAFDF76DFE0090F7
:102590001A4840F825401A48006860610020A06190
:1025A0001748006810B11648006884611448046038
:1025B0003434A07813490978084312490870207808
:1025C0001149085C6178084314F834190E4A5054D4
:1025D0000E480078401C0D4908700098FDF748FE31
:1025E0000020BDE8F88FFFE70098FDF741FE42208C
:1025F000F7E700004C0000203F000000CC0900205D
:1026000054000020390000203A0000204300002040
:10261000002400BF00BFFDF727FE04460548006800
:10262000401C044908602046FDF722FEFFF717FB17
:10263000F1E700004400002010B504480068FFF7EF
:1026400047FBFF20FFF760FA10BD000048000020A4
:10265000002400BF02E02820FFF7B0FC19480078F2
:102660000028F8D0184800686421B0FBF1F0164942
:1026700008600846006828B9002014490870FF2047
:10268000FFF746FC00BFFDF7EFFD04461048006869
:102690001049086000200E4908602046FDF7E8FD5B
:1026A0000C48006808490968B0FBF1F0C0F164000B
:1026B00006490870FFF70DFB00F00EF81420FFF735
:1026C0007DFCE0E7340000202C00002028000020E2
:1026D00044000020300000207CB5002514E069464D
:1026E0002846FFF7F7FA064666B9094850F825402C
:1026F00044B1012C06D0D4E9020100EB81006064F2
:102700000198A064681CC5B23F2DE8D97CBD0000CB
:10271000CC09002002F0010343B102F002032BB107
:1027200002E0491E002308C00029FAD17047704713
:1027300010B504468CBB002033490870334800882C
:1027400049F24131884210D12C20314908802A2099
:10275000304908802B2030490880F0202F4908801C
:102760004FF4A0702E49088049E02848008841F6BF
:102770006311884243D12C20254908802B2025490C
:1027800008802A20244908804FF4F07023490880EB
:102790004FF448702249088031E0FFE701201A49D0
:1027A00008701A48008849F24131884210D12C2023
:1027B000174908802A20174908802B2016490880CD
:1027C0004FF4A07015490880F0201549088016E0E4
:1027D0000E48008841F66311884210D12C200C4924
:1027E00008802A200B4908802B200B4908804FF4D1
:1027F00048700A4908804FF4F070094908800020A9
:1028000000F010F810BD00000A00002008000020B1
:102810001000002012000020140000200C000020F6
:102820000E00002070B505460024002630480078D0
:10283000012805D12F48008849F24131884208D04B
:102840002B480078F0B92B48008841F66311884284
:1028500018D1082D15D2DFE805F00406080A0C0E81
:10286000101206250DE007250BE0042509E00525DB
:1028700007E0012505E0002503E0032501E002252E
:1028800000BF00BF082D1CD2DFE805F00406090CCC
:102890000F12151800BF14E044F0800411E044F05A
:1028A00040040EE044F0C0040BE044F0200408E0D3
:1028B00044F0600405E044F0A00402E044F0E004C9
:1028C00000BF00BF36260B48008849F241318842DC
:1028D00001D144F0080421463046FEF73FFF064888
:1028E00003880648028800210846FEF761FE70BD95
:1028F0000A000020080000200E0000200C0000202C
:10290000BE21074A11800521921C118011460880C2
:1029100001211180FF211180002111801180704759
:10292000FE1F006C10B5FFF711F8FDF7FBFEFFF777
:1029300081FBFFF71DF810BD00B593B000BF00206C
:1029400001902A48006840F08050284908600846F5
:10295000006800F08050019000BF00BF00BF002061
:1029600001902348006840F48040214908600846EF
:10297000006800F48040019000BF00BF0120029079
:1029800000040390022008904105099108210A9152
:102990004FF4A8710B9102210C9107210D9102A80F
:1029A000FEF790F808B1FDF731FD0F200E900220E0
:1029B0000F90002010904FF4A05011904FF48050D1
:1029C000129005210EA8FDF73BFF08B1FDF71EFD93
:1029D000FDF79CFE41F20101884205D105480068DF
:1029E00040F480700349086013B000BD40380240D5
:1029F00000700040003C02401448006840F4700041
:102A0000124908601248006840F00100104908604F
:102A100000200F49083108600D4800680D49084042
:102A20000B4908600C48091D0860081F006820F465
:102A30008020091F0860002005490C3108604FF014
:102A400000600249803908607047000088ED00E0AE
:102A500000380240FFFFF6FE1030002400BFFEE702
:102A60007047704730B585B0FDF764FEFEF77EFE17
:102A700001210846FEF7D2FEFFF75EFFFEF7B4FB2A
:102A80004FF4FC60FEF7A0FA00240DE0002507E0FB
:102A90004FF4784221462846FEF7B4FA681C85B206
:102AA000F02DF5DB601C84B2B4F5A07FEEDB4FF4B3
:102AB000784214213220FEF7A5FAFEF72FFF0320FB
:102AC00000214FF48072084BCDE90310CDE90132AB
:102AD00000900346054A0648FEF7B8FFFEF790FF50
:102AE000002005B030BD000064000020600400201C
:102AF000F70300084FF04070E1EE100A7047000045
:102B00000000010203040102030406070809000093
:102B100001000200010003000100020001000400A6
:102B20000100020001000300010002000100050095
:102B30000100020001000300010002000100040086
:102B40000100020001000300010002000100060074
:102B50000100020001000300010002000100040066
:102B60000100020001000300010002000100050055
:102B70000100020001000300010002000100040046
:102B80000100020001000300010002000100070033
:102B90000100020001000300010002000100040026
:102BA0000100020001000300010002000100050015
:102BB0000100020001000300010002000100040006
:102BC00001000200010003000100020001000600F4
:102BD00001000200010003000100020001000400E6
:102BE00001000200010003000100020001000500D5
:102BF00001000200010003000100020001000400C6
:102C000001000200010003000100020001000000B9
:102C1000302C00080000002064000000C4010008FF
:102C2000942C00086400002034150000E001000826
:102C3000000000000000FFFF000000000000000096
:102C400000000000000000000024F400000000006C
:102C50000000000000000000000000000000000074
:102C60000000000000000000000000000000000064
:102C70000000000000000000000000000000000054
:102C80000000000000000000000000000000000044
:042C90000000000040
:040000050800018965
:00000001FF
