:020000040800F2
:100000003011002029020008A10E0008E90D0008A7
:100010009D0E0008AB030008E91100080000000075
:10002000000000000000000000000000B110000807
:10003000AF03000800000000B9020008B310000878
:10004000430200084302000843020008430200087C
:10005000430200084302000843020008430200086C
:10006000430200084302000843020008430200085C
:10007000430200084302000843020008430200084C
:10008000430200084302000843020008430200083C
:10009000430200084302000843020008430200082C
:1000A000430200084302000843020008430200081C
:1000B000430200084302000843020008430200080C
:1000C00043020008430200084302000843020008FC
:1000D00043020008430200084302000843020008EC
:1000E00043020008430200084302000843020008DC
:1000F00043020008430200084302000843020008CC
:1001000043020008430200084302000843020008BB
:1001100043020008430200084302000843020008AB
:10012000430200084302000843020008430200089B
:10013000430200084302000843020008430200088B
:10014000430200084302000843020008430200087B
:10015000430200084302000843020008430200086B
:10016000430200084302000843020008430200085B
:100170004302000843020008430200080000000098
:10018000430200084302000800F002F800F03CF8C7
:100190000AA090E8000C82448344AAF10107DA45E2
:1001A00001D100F031F8AFF2090EBAE80F0013F0F8
:1001B000010F18BFFB1A43F0010318475C11000040
:1001C0007C110000103A24BF78C878C1FAD85207D1
:1001D00024BF30C830C144BF04680C6070470000C1
:1001E0000023002400250026103A28BF78C1FBD840
:1001F000520728BF30C148BF0B6070471FB500F0E1
:10020000FDFF1FBD10B510BD00F095F81146FFF7BA
:10021000F5FF00F0EBFF00F0B3F803B4FFF7F2FFD7
:1002200003BC00F0BBF800000948804709480047BC
:10023000FEE7FEE7FEE7FEE7FEE7FEE7FEE7FEE796
:10024000FEE7FEE704480549054A064B70470000F3
:100250008511000889010008300B002030110020B2
:10026000300D0020300D0020EFF3108072B6704783
:1002700080F310887047264C4FF6FF7525604FF0CD
:10028000000484F30988234C4FF001052570224CAB
:100290004FF08055256062B6FEE730B41E4C4FF03B
:1002A0008055256030BC704730B41B4C4FF08055F2
:1002B000256030BC704700BF72B6EFF3098050B1C3
:1002C0001EF0100F08BF20ED108A203880E8F00FD4
:1002D00012490968086000B5114880475DF804EBD1
:1002E000104811490A7802700C4810490A680260E7
:1002F000106890E8F00F20301EF0100F08BFB0EC2F
:10030000108A80F309884EF0040E62B6704700BF71
:1003100022ED00E02E00002004ED00E0340000207B
:10032000910F000823000020240000203C00002042
:10033000704770477047754600F02CF8AE460500D0
:100340006946534620F00700854618B020B5FFF7F0
:1003500079FFBDE820404FF000064FF000074FF056
:1003600000084FF0000B21F00701AC46ACE8C009D3
:10037000ACE8C009ACE8C009ACE8C0098D467047DC
:1003800010B50446AFF300802046BDE81040FFF7EB
:1003900044BF000000487047D00A002001491820DF
:1003A000ABBEFEE726000200704700BFFEE77047C5
:1003B00000BFFEE7F8B502460B46002500240020EA
:1003C0000021DCE0012606FA01F51E6806EA0504B4
:1003D000AC4273D15E68022E02D05E68122E13D139
:1003E000CF0802F1200656F827004E07F70E0F2619
:1003F000BE40B0434F07FF0E1E69BE403043CF08DA
:1004000002F1200646F8270010684F000326BE4080
:10041000B0431E7906F003064F00BE403043106023
:100420005E68012E08D05E68022E05D05E68112E2F
:1004300002D05E68122E13D190684F000326BE4092
:10044000B0434F00DE68BE403043906050680126E4
:100450008E40B0431E79C6F300168E403043506084
:10046000D0684F000326BE40B0434F009E68BE4098
:100470003043D0605E6806F08056B6F1805F7DD173
:1004800000BF00260096404E366846F480463E4F38
:100490003E603E46366806F48046009600BF00BFC8
:1004A0003A4E8F0856F827008E07370F0F26BE40AA
:1004B000B043374EB24202D1002624E05EE0354E12
:1004C000B24201D101261EE0334EB24201D10226D2
:1004D00019E0324EB24201D1032614E0304EB2424E
:1004E00001D104260FE02F4EB24201D105260AE0C9
:1004F0002D4EB24201D1062605E02C4EB24201D16A
:10050000072600E008268F073F0FBE4030431F4EEE
:100510008F0846F82700264E3068A0435E6806F430
:100520008036B6F5803F00D12043214E3060361D25
:100530003068A0435E6806F40036B6F5003F00D18F
:1005400020431B4E361D3060361D3068A0435E6868
:1005500006F48016B6F5801F00D12043144E0836ED
:100560003060361D3068A0435E6806F40016B6F5AC
:10057000001F00D120430E4E0C363060491C10295C
:10058000FFF420AFF8BD00004438024008380140B5
:10059000000002400004024000080240000C02403B
:1005A000001002400014024000180240001C0240EB
:1005B000003C01400AB1816101E00B048361704796
:1005C00001480068000C7047002004E00148006802
:1005D000704700000000002010B50D48006840F48E
:1005E00000700B4908600846006840F480600860AD
:1005F0000846006840F480700860032000F05EF850
:100600000F2000F007F800F019F8002010BD0000DE
:10061000003C024070B50446074800684FF47A7108
:10062000B0FBF1F5284600F0C5FB00222146501E24
:1006300000F005F8002070BD0400002070472DE98F
:10064000F05F80460D461646002700F02BFC07465B
:1006500039462A46334601F00700C0F1070ABAF1CD
:10066000040F02D94FF0040A01E0C0F1070AD14695
:1006700000F1040ABAF1070F02D24FF0000A01E0BC
:10068000A0F1030AD4464FF0010A0AFA09FAAAF1C6
:10069000010A0AEA020A0AFA0CFA4FF0010B0BFAF5
:1006A0000CFBABF1010B0BEA030B4AEA0B042146EE
:1006B000404600F0FFFBBDE8F09F000000BF00F0E7
:1006C0000702064B19684FF6FF031940044B0B4312
:1006D00043EA0221014B196000BF70470CED00E0B6
:1006E0000000FA0570B504460D4600266D48006806
:1006F00000F00F00A84209D26A490D700846006850
:1007000000F00F00A84201D0012070BD207800F059
:100710000200022807D16448006820F0F000A168B8
:10072000084361490860207800F00100002877D074
:100730006068012807D15C4808380068C0F3404071
:10074000B8B90120E1E76068022802D06068032898
:1007500007D1554808380068C0F3406048B9012007
:10076000D3E7514808380068C0F3400008B90120B9
:10077000CBE74D48006820F00300616808434A4910
:100780000860FFF723FF06466068012810D108E0E3
:10079000FFF71CFF801B41F28831884201D90320FA
:1007A000B3E74148006800F00C000428F0D137E0BE
:1007B0006068022810D108E0FFF708FF801B41F2B3
:1007C0008831884201D903209FE73748006800F04C
:1007D0000C000828F0D123E06068032810D108E05D
:1007E000FFF7F4FE801B41F28831884201D90320D3
:1007F0008BE72D48006800F00C000C28F0D10FE0CA
:1008000008E0FFF7E3FE801B41F28831884201D9FE
:1008100003207AE72448006800F00C000028F0D19B
:100820002048006800F00F00A84209D91D490D704A
:100830000846006800F00F00A84201D0012064E7DC
:10084000207800F00400042807D11748006820F43D
:10085000E050E168084314490860207800F008007F
:10086000082808D11048006820F46040216940EA57
:10087000C1000D49086000F01DF80B49096801F03E
:10088000F001F02292FAA2F2B2FA82F2D140074AC3
:10089000515CC840064908600F20FFF7BBFE0020EE
:1008A00033E70000003C024008380240061200080E
:1008B0000400002070B50021002200230020274CF6
:1008C000246804F00C0424B1042C04D0082C41D179
:1008D00003E0234840E023483EE0204C241F2468E6
:1008E00004F03F011D4C241F246804F4800484B1EB
:1008F0001C4CB4FBF1F5194C241F246847F6C07654
:10090000344096FAA6F6B6FA86F6F44005FB04F2F1
:100910000FE0134CB4FBF1F5104C241F246847F68C
:10092000C076344096FAA6F6B6FA86F6F44005FB91
:1009300004F20A4C241F246804F440344FF4403578
:1009400095FAA5F5B5FA85F5EC40641C6300B2FB99
:10095000F3F001E0024800BF00BF70BD083802405C
:100960000024F40000127A0038B5044600252078EF
:1009700000F00100002874D0F748006800F00C0077
:1009800004280DD0F448006800F00C00082813D1AA
:10099000F148001F006800F48000B0F5800F0BD113
:1009A000ED4808380068C0F34040002859D060681E
:1009B000002856D1012038BD00BF6068B0F5803FE7
:1009C00008D1E5480838006840F48030E249083929
:1009D00008601EE06068B0F5A02F0DD1DE48083831
:1009E000006840F48020DC49083908600846006847
:1009F00040F4803008600CE0D7480838006820F4E4
:100A00008030D549083908600846006820F4802005
:100A1000086000BF606890B1FFF7D8FD054606E0AA
:100A2000FFF7D4FD401B642801D90320C3E7CA485F
:100A300008380068C0F340400028F1D011E0FFF70B
:100A4000C5FD054606E0FFF7C1FD401B642801D93E
:100A50000320B0E7C04808380068C0F340400028D1
:100A6000F1D1207800F00200022869D1BA4800686C
:100A700000F00C0058B1B848006800F00C000828DD
:100A800021D1B548001F006800F48000D8B9B248F1
:100A900008380068C0F3400020B1E068012801D0A8
:100AA000012088E7AC480838006820F0F800F822F8
:100AB00092FAA2F2B2FA82F2216991400843A64961
:100AC000083908603CE0E06828B30120A3490860C9
:100AD000FFF77CFD054606E0FFF778FD401B022886
:100AE00001D9032067E79C4808380068C0F340003C
:100AF0000028F1D098480838006820F0F800F82263
:100B000092FAA2F2B2FA82F2216991400843924924
:100B10000839086014E0002090490860FFF756FD8E
:100B2000054606E0FFF752FD401B022801D90320CD
:100B300041E7894808380068C0F340000028F1D137
:100B4000207800F0080008282CD16069A8B10120A5
:100B500083490860FFF73AFD054606E0FFF736FDDA
:100B6000401B022801D9032025E77B486C30006830
:100B7000C0F340000028F1D014E00020784908605C
:100B8000FFF724FD054606E0FFF720FD401B022885
:100B900001D903200FE770486C300068C0F34000B3
:100BA0000028F1D1207800F0040004287FD100BF94
:100BB0000020009068483830006840F08050664956
:100BC000383108600846006800F08050009000BF8F
:100BD00000BF6448006840F4807062490860FFF715
:100BE000F5FC054606E0FFF7F1FC401B022801D9A1
:100BF0000320E0E65B48006800F480700028F2D033
:100C000000BFA068012808D153486830006840F050
:100C100001005149683108601DE0A06805280DD128
:100C20004D486830006840F004004B496831086066
:100C30000846006840F0010008600CE04648683053
:100C4000006820F0010044496831086008460068E7
:100C500020F00400086000BFA068A0B1FFF7B6FC58
:100C6000054608E0FFF7B2FC401B41F2883188429C
:100C700001D903209FE6384868300068C0F340007F
:100C80000028EFD013E0FFF7A1FC054608E0FFF7CE
:100C90009DFC401B41F28831884201D903208AE63D
:100CA0002D4868300068C0F340000028EFD1A069EB
:100CB000F0B32948006800F00C00082871D0A06942
:100CC000022858D1002025490866FFF77FFC054619
:100CD00006E0FFF77BFC401B022801D903206AE6EF
:100CE0001D4808380068C0F340600028F1D1D4E9FD
:100CF0000701084347F6C07292FAA2F2B2FA82F2F2
:100D0000616A914008430122A16AC2EB51014FF48C
:100D1000403292FAA2F2B2FA82F2914008434FF0C6
:100D2000706292FAA2F2B2FA82F2E16A914000E0B5
:100D300039E008430849091F08600120074908668F
:100D4000FFF744FC05460FE0FFF740FC401B02287C
:100D50000AD903202FE6000008380240000047426D
:100D6000800E47420070004010480068C0F34060A9
:100D70000028E9D017E000200D490866FFF726FC9F
:100D8000054606E0FFF722FC401B022801D903209C
:100D900011E606480068C0F340600028F2D102E086
:100DA000FFE7012007E6002005E6000000380240CA
:100DB0000000474270B504462546681EB0F1807FAA
:100DC00001D301200FE0681E4FF0E02148610F21A0
:100DD0004FF0FF3000F06EF800204FF0E021886106
:100DE00007200861002070BD00BFFEE700B587B096
:100DF00000BF002001902648006840F01000244900
:100E000008600846006800F01000019000BF00BFB5
:100E100000BF002001900846006840F040000860D4
:100E20000846006800F04000019000BF00BF0120AC
:100E30000390002004900820029002A91548FFF7B3
:100E4000B9FA01200390002004901020029002A91A
:100E50001048FFF7AFFA01200390002004904FF4F0
:100E60000070029002A90C48FFF7A4FA00220821A2
:100E70000848FFF79FFB002210210648FFF79AFB66
:100E8000012251020448FFF795FB07B000BD0000A6
:100E900030380240001002400018024000BFFEE758
:100EA0007047000002480068C0F30220704700004D
:100EB0000CED00E010B5002807DA0A07140E054A09
:100EC00000F00F031B1FD45403E00A07130E024A5D
:100ED000135410BD18ED00E000E400E0064800786F
:100EE000012808D105480078FF2804D2034800787B
:100EF000401C0249087070472E000020210000208D
:100F000010B500241A480078012830D1FFF7ACF959
:100F100004461848007820B116480078401E15494C
:100F2000087014480078F8B913480078E0B900F068
:100F3000A9F812481249097850F8210011490860AF
:100F40000F4800781049097888420DD00D48006894
:100F5000806B401C0B49096888630C480068401C82
:100F60000A490860FFF7A0F92046FFF781F910BD94
:100F70002E00002021000020220000206805002013
:100F8000240000203C000020230000200800002056
:100F90007047000070B5002600F072F8FFF764F9A2
:100FA000064631480068401C2F4908603046FFF76C
:100FB0005FF92E480078012853D12D48007820B1E0
:100FC000012804D0022809D103E001250BE0002507
:100FD00009E0012501202649087004E001250020D0
:100FE0002349087000BF00BF05B970BD21480468DF
:100FF00033E0FFF739F90646E06A50B3E06A401E75
:10100000E062E06A28BB94F8300000F0370040B19D
:1010100014F8300F00F0C800207001206070303CE0
:1010200002E0002084F8310094F8300000F008005D
:1010300078B93434A0781049097808430E4908700B
:1010400020780E49085C6178084314F834190B4A7B
:10105000505464693046FFF70BF994F832003F288A
:10106000C7D100BFC1E700004C0000202E000020C7
:101070004400002040000020250000202600002021
:10108000704700000649074A1278885C0649095CE7
:10109000034A515C01EBC001044A11707047000023
:1010A0001612000825000020260000202400002041
:1010B000704710B5FFF712FFFFF76CFFFFF720FF37
:1010C00010BD000000B593B000BF002001902A4879
:1010D000006840F08050284908600846006800F029
:1010E0008050019000BF00BF00BF00200190234846
:1010F000006840F48040214908600846006800F418
:101100008040019000BF00BF0120029000040390C6
:10111000022008904105099108210A914FF4A87115
:101120000B9102210C9107210D9102A8FFF71CFCE5
:1011300008B1FFF73DF90F200E9002200F9000201C
:1011400010904FF4A05011904FF480501290052150
:101150000EA8FFF7C7FA08B1FFF72AF9FFF730FA30
:1011600041F20101884205D10548006840F48070D1
:101170000349086013B000BD4038024000700040D1
:10118000003C02401448006840F4700012490860B6
:101190001248006840F001001049086000200F4923
:1011A000083108600D4800680D4908400B49086087
:1011B0000C48091D0860081F006820F48020091FE2
:1011C0000860002005490C3108604FF000600249BA
:1011D000803908607047000088ED00E00038024068
:1011E000FFFFF6FE1030002400BFFEE7FFF7F4F922
:1011F000FFF7FCFDFFF766FF00BFFEE74FF0407012
:10120000E1EE100A70470000000001020304010231
:1012100003040607080900000100020001000300A2
:1012200001000200010004000100020001000300AF
:10123000010002000100050001000200010003009E
:10124000010002000100040001000200010003008F
:10125000010002000100060001000200010003007D
:10126000010002000100040001000200010003006F
:10127000010002000100050001000200010003005E
:10128000010002000100040001000200010003004F
:10129000010002000100070001000200010003003C
:1012A000010002000100040001000200010003002F
:1012B000010002000100050001000200010003001E
:1012C000010002000100040001000200010003000F
:1012D00001000200010006000100020001000300FD
:1012E00001000200010004000100020001000300EF
:1012F00001000200010005000100020001000300DE
:1013000001000200010004000100020001000300CE
:101310000100020001000000381300080000002056
:1013200050000000C401000888130008500000208D
:10133000E0100000E0010008000000000024F400BC
:10134000000000000000000000000000000000009D
:10135000000000000000000000000000000000008D
:10136000000000000000000000000000000000007D
:10137000000000000000000000000000000000006D
:08138000000000000000000065
:040000050800018965
:00000001FF
